:100000000C9462000C9481000C9481000C9481008B
:100010000C9481000C9481000C9481000C9481005C
:100020000C9481000C9481000C9481000C9481004C
:100030000C9481000C9481000C9481000C9481003C
:100040000C9481000C9481000C948D020C9481001E
:100050000C9481000C94F2000C9481000C948100AB
:100060000C9481000C9481000C9481000C9481000C
:100070000C9481000C9481000C9481000C948100FC
:100080000C9481000C9481000C9481000C948100EC
:100090000C9481007E006E007F0062000C0037002F
:1000A00026000C00370012000C0037000E000C0078
:1000B000370006000C00370002000C00370000007B
:1000C0000C00370011241FBECFEFD0E1DEBFCDBF43
:1000D00011E0A0E0B1E0E4E2F2E100E00BBF02C019
:1000E00007900D92AA35B107D9F712E0AAE5B1E061
:1000F00001C01D92AC3BB107E1F70E9437030C949D
:1001000010090C94000010925E0110925D01109293
:100110005C0110925B011092C50083E38093C400E0
:1001200088E98093C10086E08093C2000895909191
:100130005C0180915B019817A1F080915B0190E0D8
:1001400001968F77992780935B01FC01E15AFE4F5E
:10015000208180915A0190E0982F8827820F911D6D
:10016000089580E091E0089590915C0180915B0199
:10017000981789F0E0915B01F0E03196EF77FF2767
:10018000E15AFE4F208180915A0190E0982F8827F4
:10019000820F911D089580E091E00895CF93C82FBC
:1001A0008A3019F48DE00E94CE008091C00085FF56
:1001B000FCCFC093C60080E090E0CF91089580917D
:1001C0005C0120915B0190E081589F4F821B910957
:1001D0006FE770E00E94C005089580915B018093F5
:1001E0005C0108951F920F920FB60F9211240BB667
:1001F0000F922F933F934F935F938F939F93EF9320
:10020000FF934091C0005091C600487180915C01FD
:1002100090E001968F77992720915B0130E082175B
:10022000930739F080935C01FC01E15AFE4F508343
:1002300001C042E040935A01FF91EF919F918F914D
:100240005F914F913F912F910F900BBE0F900FBE7A
:100250000F901F901895611571058105910559F052
:1002600020E060FD06C096958795779567952F5F8E
:10027000F8CF2F3010F08FEF0895822F0895559A00
:100280005698883008F07CC09091D8009160909387
:10029000D8001092D8001092E0001092E100109265
:1002A000DA001092DB001092DD001092DC00109258
:1002B000DF001092DE009091ED00977F9093ED00AB
:1002C00090E0292F2295207F2093ED001092F300DB
:1002D0001092F2001092F1001092F0001092F700CC
:1002E0001092F6001092F5001092F4001092EE00B9
:1002F0001092EF009F5F9F3021F726E0829FC001A0
:100300001124FC01EC56FF4FE491E093E200FC0164
:10031000EA56FF4FE491E093E300FC01E856FF4FFB
:1003200084918093E40081E090E8282F2295207F3B
:100330002093ED001092EE00823059F09093EF0080
:100340001092F3001092F2001092F7001092F60053
:1003500004C01092F3001092F2008F5F873029F7EB
:1003600080EB8093DB008FEF8093DE008091D800DC
:1003700082608093D8008091D90082FFFCCF02C0B8
:1003800080E0089581E00895AF92BF92CF92DF920E
:10039000EF92FF920F931F93CF93DF93CDB7DEB70A
:1003A0002F970FB6F894DEBF0FBECDBFA982BA82D9
:1003B000CB82DC82ED82FE820F83188729873A8701
:1003C0004B875C876D877E878F8789819A81AB8118
:1003D000BC8120E22093ED002F812093EF00282F95
:1003E0002295220F207E2093F20043E0B695A79538
:1003F000979587954A95D1F78093F300FE0138963B
:10040000CE01409621912093FA00E817F907D1F721
:100410008091D90084FDFCCF8091EF0080648093AF
:10042000EF002F960FB6F894DEBF0FBECDBFDF9161
:10043000CF911F910F91FF90EF90DF90CF90BF90E1
:10044000AF90089580E18093ED001092F00010923B
:10045000F1001092F2001092F3001092F700109247
:10046000F60080E88093EF000895FF920F931F93AA
:10047000CF93DF93EB018E811F928F931F921F9278
:100480001F9281E08F931F921F928B818F938A819D
:100490008F9389818F9388818F931F9283E28F93AB
:1004A0008EE091E09F938F930E9435068DB79EB7A3
:1004B00040960FB6F8949EBF0FBE8DBFF12C07E299
:1004C00011E08E81F81680F4FE01EF0DF11D878199
:1004D0001F928F931F930F930E943506F3940F90F2
:1004E0000F900F900F90EDCF1F928AE28F938BEABF
:1004F0008F938DE38F938DE291E09F938F930E9472
:1005000035060F900F900F900F900F900F90DF9186
:10051000CF911F910F91FF9008951F920F920FB6E8
:100520000F9211240BB60F922F933F934F935F932B
:100530006F937F938F939F93AF93BF93CF93EF93DB
:10054000FF93C091ED006091E0008091E10070E0C8
:10055000782B882777FD8095982F0E942B018F3F5D
:1005600009F463C08295807F8093ED008091EE0056
:1005700086FF06C08091EE008F7B8093EE0053C013
:100580008091EE0085FF4FC010928202109283028C
:1005900010928402109285028091F30090E0982FCF
:1005A0008827A0E0B0E08093820290938302A0931A
:1005B0008402B09385022091F200207E822B65E0B8
:1005C000B695A795979587956A95D1F780938202FE
:1005D00090938302A0938402B09385022091EF0050
:1005E0002F702093880289E892E0FC01119232E09A
:1005F000E139F307D9F7E9E8F2E03E2F381B32176B
:1006000020F43091FA003193F8CF62E872E082E58D
:1006100090E00E9435028091EE008F7D8093EE0085
:1006200080E88093EF00C093ED00FF91EF91CF91B0
:10063000BF91AF919F918F917F916F915F914F91FA
:100640003F912F910F900BBE0F900FBE0F901F90F8
:10065000189520E030E0EFE9FFE03197F1F700C0B6
:1006600000002F5F3F4F82179307A8F708952FE0F0
:1006700088E190E00FB6F894A895809360000FBED3
:10068000209360000E94830080E18DB981E090E0BA
:100690000E9442080E943F01882309F440C00E9442
:1006A0002202789480E091E09093B7028093B602A2
:1006B0009093B9028093B80284E0809365028DED37
:1006C00095E0A0E0B0E080935F0290936002A09379
:1006D0006102B093620284E58093660285E68093AE
:1006E000670283E78093680284E78093690280E26F
:1006F00080936A028FE480936B028BE480936C0298
:1007000086E391E09F938F938BE391E09F938F9388
:100710000E9435060F900F900F900F9035C083E028
:100720000E943F018111BBCFB1CF88819981AA81FD
:10073000BB8180935F0290936002A0936102B093AB
:10074000620240936502A0905F02B0906002C09088
:100750006102D0906202E0906302F0906402009126
:100760006502109166022091670230916802409103
:10077000690250916A0260916B0270916C028091E3
:100780006D020E94C4017894A8950E94DF0018169B
:1007900019063CF00E94BA05813089F40E949D053B
:1007A0000EC0C0E00E94DF002C2F30E02817390770
:1007B0008CF70E9497000E940204CF5FF3CF0E9443
:1007C000FA03EC010E94FF038130F1F6F8940E94D5
:1007D000BD054F8120E030E0241708F0A6CFFE01D0
:1007E000E20FF31F8085F901E15AFD4F87832F5FE8
:1007F0003F4FF2CF809170029091710208958091E5
:100800006F020895E0916E02F0E0EF56FD4F808395
:1008100090916E029F5F90936E028A3229F481E07C
:100820008093B50210926E020895CF93DF9300D0AB
:1008300000D0CDB7DEB76DE370E00E941306BC01B7
:100840006F5F7F4F44E050E0CE0101960E941E068C
:10085000CE0101960E94E805843F21E0920751F005
:10086000883E23E0920749F08A3F910549F063E012
:1008700070E008C066E070E005C067E070E002C0AC
:1008800065E070E081E090E00E9448081092B502B7
:10089000F894FFCFCF93DF93CDB7DEB72C970FB689
:1008A000F894DEBF0FBECDBF26E0FC013196DE011D
:1008B000179601900D922A95E1F786E0EEE3F1E0BC
:1008C000DE01119601900D928A95E1F746E050E025
:1008D000BE016F5F7F4FCE0107960E940606892BEF
:1008E00071F48BEF8F938FEB8F9385E491E09F935F
:1008F0008F930E9435060F900F900F900F901092DB
:10090000B5022C960FB6F894DEBF0FBECDBFDF91B7
:10091000CF910895CF939B012150304C220F331F6C
:10092000220F331FDC0180E090E040E050E04617EA
:100930005707A9F0CD91EC2FF0E0CA3310F4F097EF
:1009400001C0F797022E02C0EE0FFF1F0A94E2F7D4
:100950008E0F9F1F4F5F5F4F24503109E8CFCF911B
:100960000895EF92FF920F931F93CF93DF93CDB72C
:10097000DEB7EC970FB6F894DEBF0FBECDBF22E70F
:1009800032E030937102209370027E0129E2E20E80
:10099000F11C25E0F701322F11923A95E9F78E010B
:1009A0000C5D1F4FF80111922A95E9F763E270E0A0
:1009B0000E941306BC016F5F7F4F41E250E0CE0101
:1009C00001960E941E0644E050E0BE016F5F7F4F1B
:1009D000C7010E941E0644E050E0BE016B5F7F4FDE
:1009E000C8010E941E0664E070E0C7010E948A04EC
:1009F0007C0164E070E0C8010E948A04A70160E005
:100A000070E0BA0155274427A0E0B0E0482B592BED
:100A10006A2B7B2B40937202509373026093740293
:100A2000709375021AAE1BAE1CAE42E050E0BE01E0
:100A3000675F7F4FCE01CA960E941E0662E070E09B
:100A4000CE01CA960E948A04809376021FAA18AE2D
:100A500019AE42E050E0BE01655F7F4FCE01C79600
:100A60000E941E0662E070E0CE01C7960E948A04D2
:100A7000809377021CAA1DAA1EAA42E050E0BE0184
:100A8000635F7F4FCE01C4960E941E0662E070E055
:100A9000CE01C4960E948A048093780219AA1AAAE9
:100AA0001BAA42E050E0BE01615F7F4FCE01C196BC
:100AB0000E941E0662E070E0CE01C1960E948A0488
:100AC000809379021EA61FA618AA8C011127000F79
:100AD000111FF12C6F2D660F70E060177107DCF4A9
:100AE000605F7F4F21E030E02C0F3D1F620F731FCE
:100AF00042E050E0CE018E960E941E0662E070E059
:100B0000CE018E960E948A04EF2DF0E0EE58FD4F44
:100B10008087F394DFCF1092B50281E080936F025B
:100B2000EC960FB6F894DEBF0FBECDBFDF91CF912C
:100B30001F910F91FF90EF90089580919102833261
:100B400041F0843251F0813261F481E992E00C94F9
:100B50004A0481E992E00C94B10481E992E00E9498
:100B600015048AE491E09F938F930E9435060F90BD
:100B70000F9008958091B502089510926F02089524
:100B800097FB072E16F4009407D077FD09D00E943A
:100B9000D40507FC05D03EF4909581959F4F0895AC
:100BA000709561957F4F0895AA1BBB1B51E107C04B
:100BB000AA1FBB1FA617B70710F0A61BB70B881FED
:100BC000991F5A95A9F780959095BC01CD0108957C
:100BD000FC0188279927E89421912032E9F32930F4
:100BE00010F02E30C8F32B3241F02D3239F46894D6
:100BF00004C00E942D06820F911D219120532A309E
:100C0000C0F31EF4909581959F4F0895FB01DC0180
:100C100004C08D910190801921F441505040C8F7D3
:100C2000881B990B0895FC018191861721F0882378
:100C3000D9F7992708953197CF010895FB01DC0179
:100C40004150504048F001900D920020C9F701C07A
:100C50001D9241505040E0F708957AE0979F902D03
:100C6000879F802D910D11240895CF93DF93CDB7E9
:100C7000DEB7FE01359661917191AF018091B802A6
:100C80009091B9020E944706DF91CF9108952F926B
:100C90003F924F925F926F927F928F929F92AF920C
:100CA000BF92CF92DF92EF92FF920F931F93CF9359
:100CB000DF93CDB7DEB72C970FB6F894DEBF0FBE2B
:100CC000CDBF7C016B018A01FC01178216828381F2
:100CD00081FFBDC1CE0101964C01F7019381F60160
:100CE00093FD859193FF81916F01882309F4ABC136
:100CF000853239F493FD859193FF81916F0185329F
:100D000029F4B70190E00E946308E7CF512C312C01
:100D100020E02032A0F48B3269F030F4803259F0B8
:100D2000833269F420612CC08D3239F0803339F47C
:100D3000216026C02260246023C0286021C027FDD6
:100D400027C030ED380F3A3078F426FF06C0FAE0BD
:100D50005F9E300D1124532E13C08AE0389E300D53
:100D60001124332E20620CC08E3221F426FD6BC17B
:100D7000206406C08C3611F4206802C0883641F425
:100D8000F60193FD859193FF81916F018111C1CF90
:100D9000982F9F7D9554933028F40C5F1F4FFFE3ED
:100DA000F9830DC0833631F0833771F0833509F054
:100DB0005BC022C0F801808189830E5F1F4F4424ED
:100DC0004394512C540115C03801F2E06F0E711C90
:100DD000F801A080B18026FF03C0652D70E002C03D
:100DE0006FEF7FEFC5012C870E9458082C0183010B
:100DF0002C852F77222E17C03801F2E06F0E711C60
:100E0000F801A080B18026FF03C0652D70E002C00C
:100E10006FEF7FEFC5012C870E944D082C012C85B8
:100E20002068222E830123FC1BC0832D90E04816EE
:100E30005906B0F4B70180E290E00E9463083A944A
:100E4000F4CFF50127FC859127FE81915F01B70161
:100E500090E00E94630831103A94F1E04F1A510873
:100E60004114510471F7E5C0843611F0893639F523
:100E7000F80127FF07C060817181828193810C5F37
:100E80001F4F08C060817181882777FD8095982F5A
:100E90000E5F1F4F2F76B22E97FF09C09095809559
:100EA000709561957F4F8F4F9F4F2068B22E2AE03B
:100EB00030E0A4010E949508A82EA81844C08537E8
:100EC00029F42F7EB22E2AE030E025C0F22FF97FE0
:100ED000BF2E8F36C1F018F4883579F0B4C0803752
:100EE00019F0883721F0AFC02F2F2061B22EB4FE49
:100EF0000DC08B2D8460B82E09C024FF0AC09F2F1F
:100F00009660B92E06C028E030E005C020E130E050
:100F100002C020E132E0F801B7FE07C060817181B4
:100F2000828193810C5F1F4F06C06081718180E0D8
:100F300090E00E5F1F4FA4010E949508A82EA818EC
:100F4000FB2DFF77BF2EB6FE0BC02B2D2E7FA514D9
:100F500050F4B4FE0AC0B2FC08C02B2D2E7E05C092
:100F60007A2C2B2D03C07A2C01C0752C24FF0DC0C8
:100F7000FE01EA0DF11D8081803311F4297E09C044
:100F800022FF06C07394739404C0822F867809F000
:100F9000739423FD13C020FF06C05A2C731418F459
:100FA000530C5718732C731468F4B70180E290E067
:100FB0002C870E94630873942C85F5CF731410F46A
:100FC000371801C0312C24FF12C0B70180E390E034
:100FD0002C870E9463082C8522FF17C021FF03C0C5
:100FE00088E590E002C088E790E0B7010CC0822F4E
:100FF000867859F021FD02C080E201C08BE227FD16
:101000008DE2B70190E00E946308A51438F4B7019F
:1010100080E390E00E9463085A94F7CFAA94F40109
:10102000EA0DF11D8081B70190E00E946308A110D4
:10103000F5CF332009F451CEB70180E290E00E9451
:1010400063083A94F6CFF7018681978102C08FEF4B
:101050009FEF2C960FB6F894DEBF0FBECDBFDF9189
:10106000CF911F910F91FF90EF90DF90CF90BF90A5
:10107000AF909F908F907F906F905F904F903F9038
:101080002F900895A8E1B0E042E050E00C94F508FC
:101090000E940309272F0C940409FC01059061505C
:1010A00070400110D8F7809590958E0F9F1F08957E
:1010B000FC016150704001900110D8F78095909527
:1010C0008E0F9F1F08950F931F93CF93DF93182FB9
:1010D000092FEB018B8181FD03C08FEF9FEF20C0B3
:1010E00082FF10C04E815F812C813D8142175307E2
:1010F0007CF4E881F9819F012F5F3F4F398328837A
:10110000108306C0E885F985812F0995892B29F779
:101110002E813F812F5F3F4F3F832E83812F902F62
:10112000DF91CF911F910F910895FA01AA272830DE
:1011300051F1203181F1E8946F936E7F6E5F7F4FA4
:101140008F4F9F4FAF4FB1E03ED0B4E03CD0670F20
:10115000781F891F9A1FA11D680F791F8A1F911D73
:10116000A11D6A0F711D811D911DA11D20D009F4C3
:1011700068943F912AE0269F11243019305D319305
:10118000DEF6CF010895462F4770405D4193B3E0EE
:101190000FD0C9F7F6CF462F4F70405D4A3318F095
:1011A000495D31FD4052419302D0A9F7EACFB4E046
:1011B000A6959795879577956795BA95C9F70097FE
:1011C0006105710508959B01AC010A2E069457959F
:1011D000479537952795BA95C9F7620F731F841FF6
:1011E000951FA01D0895DC01CB01FC01F999FECFEC
:1011F00006C0F2BDE1BDF89A319600B40D9241509F
:101200005040B8F70895262FF999FECF92BD81BDC1
:1012100020BD0FB6F894FA9AF99A0FBE0196089578
:04122000F894FFCF70
:101224000000000300000000CE00970000002530FD
:1012340031632530386C582025303258202530321F
:10124400582025303258202530325820002530329D
:1012540058253031630054455354002573004C49DC
:101264005354454E0025303258004E4F54205245B9
:0A127400434F474E49534544000024
:00000001FF
